:020000040800F2
:1000000000500020A1290008192900081B29000818
:100010001D2900081F2900082129000800000000F0
:10002000000000000000000000000000232900087C
:1000300025290008000000002729000829290008B8
:10004000E9290008E9290008E9290008E929000848
:10005000E9290008E9290008E9290008E929000838
:10006000E9290008E9290008E9290008E929000828
:10007000E9290008E9290008E9290008E929000818
:10008000E9290008E9290008E9290008E929000808
:10009000E9290008E9290008E9290008E9290008F8
:1000A000E9290008E9290008E9290008E9290008E8
:1000B00035290008E929000845290008E929000830
:1000C000E9290008E9290008E9290008E9290008C8
:1000D000E9290008E9290008E9290008E9290008B8
:1000E000E9290008E9290008E929000800000000C2
:1000F0000000000000000000000000000000000000
:0C01000000000000000000005FF808F1A3
:10010C0010B5054C237833B9044B13B10448AFF345
:10011C0000800123237010BD9C0000200000000013
:10012C007432000808B5034B1BB103490348AFF305
:10013C00008008BD00000000A00000207432000800
:10014C0010B504460E4B18784FF47A73B3FBF0F3EA
:10015C000C4A1068B0FBF3F000F0A0F868B90F2C53
:10016C0001D901200AE0002221464FF0FF3000F0B7
:10017C0055F8034B5C60002000E0012010BD00BF6F
:10018C00000000203400002008B5074A136843F033
:10019C0010031360032000F02FF80020FFF7D0FFAE
:1001AC0002F0D8FA002008BD00200240034A116872
:1001BC00034B1B780B441360704700BF18010020E1
:1001CC0000000020014B1868704700BF1801002088
:1001DC0038B50446FFF7F6FF0546B4F1FF3F02D0F1
:1001EC00044B1B781C44FFF7EDFF401BA042FAD3D5
:1001FC0038BD00BF00000020074AD36823F4E06339
:10020C001B041B0C000200F4E060184340F0BF60BC
:10021C0040F40030D060704700ED00E030B4174B74
:10022C00DB68C3F30223C3F10704042C28BF0424A6
:10023C001D1D062D18D9033B4FF0FF3505FA04F4AC
:10024C0021EA0401994005FA03F322EA0303194356
:10025C0000280BDB0901C9B200F1604000F56140D8
:10026C0080F8001330BC70470023E5E700F00F0066
:10027C000901C9B2024B1954F4E700BF00ED00E0CC
:10028C0014ED00E000F01F02400901239340024AE4
:10029C0042F82030704700BF00E100E00138B0F1B7
:1002AC00807F0AD2064B5860064AF02182F8231050
:1002BC000020986007221A6070470120704700BF29
:1002CC0010E000E000ED00E0042805D0054A1368BA
:1002DC0023F0040313607047024A136843F00403CD
:1002EC001360704710E000E0704708B5FFF7FCFFA3
:1002FC0008BD0000F0B482B000263546A1E0002C09
:10030C0059D0012C00D1CE68FF2B68D88446FF2B26
:10031C0068D8AC00DCF800200F27A74022EA0702BF
:10032C0006FA04F42243CCF800204A6812F0805FED
:10033C0000F086805E4A946944F0010494619269ED
:10034C0002F001020192019AAC08A71C594A52F81A
:10035C00272005F00307BF004FF00F0C0CFA07FC29
:10036C0022EA0C0C544A904242D002F58062904230
:10037C007FD002F5806290427DD002F5806290427F
:10038C0034D0042235E04D4FBC4214D00BD94C4F25
:10039C00BC4210D007F58037BC420CD0A7F58017B3
:1003AC00BC42B1D107E0A7F58017BC4203D007F5DA
:1003BC008037BC42A8D18C687CB1012C08D042613A
:1003CC000826A1E7CE6808369EE7CE680C369BE778
:1003DC000261082698E7002696E7042694E700F1C8
:1003EC00040C94E7A5F10804A40093E7032200E0B1
:1003FC000022BA4042EA0C0202342E4F47F8242065
:10040C004A6812F4803F38D02E4C22681A4322607E
:10041C004A6812F4003F36D02A4C62681A43626074
:10042C004A6812F4801F34D0264CA2681A43A2608A
:10043C004A6812F4001F32D0224CE2681343E36086
:10044C0001350F2D31D80122AA400B6813409A4276
:10045C00F6D14C68122CB8D095D8022CB2D07FF6BD
:10046C004EAF032CB7D0112C7FF44EAFCE680436B0
:10047C004AE70122BDE70222BBE7124C226822EABE
:10048C0003022260C4E70F4C626822EA0302626036
:10049C00C6E70C4CA26822EA0302A260C8E7094C2A
:1004AC00E26822EA0303E360CAE702B0F0BC7047DB
:1004BC000010024000000140000801400000211023
:1004CC0000003110000401408368194201D1002062
:1004DC0070470120704712B909040161704701612E
:1004EC007047C3685940C160704703685A6912F479
:1004FC00806F0DD06FF480625A6104230364002373
:10050C000363202280F83D2080F83C3001207047A6
:10051C0000207047F8B506460C4617461D461EE0EF
:10052C002DB1FFF74FFE069BC01AA84217D9002326
:10053C003363202286F83D2086F83E3086F83C3026
:10054C0003201AE033685B6924EA03039BB2B3FA15
:10055C0083F35B099F420FD1B5F1FF3FE0D1C4F3A8
:10056C000743012BEED033689B6924EA03039BB24B
:10057C00B3FA83F35B09EDE70020F8BDF8B5044648
:10058C000D4616461F4632E01A6842F400721A6095
:10059C0023686FF480625A6104232364002323636D
:1005AC00202284F83D2084F83C3001202DE026B137
:1005BC00FFF708FEC01BB04219D900232363202289
:1005CC0084F83D2084F83C3003201EE023685B69EE
:1005DC0025EA03039BB2003318BF0123A3B12368A0
:1005EC005A6912F4806FCFD1B6F1FF3FDFD1C5F35A
:1005FC000743012BEAD023689B6925EA03039BB2CE
:10060C00003318BF0123E9E70020F8BDF0B583B033
:10061C0004460D4616461F46C36A042B0DD0012B0B
:10062C000BD013F5803F08D0036B122B0AD1026854
:10063C00136843F48073136004E02268136843F476
:10064C00807313600097334600224FF0011120464F
:10065C00FFF760FF58BB2369B3F5804F10D12368B7
:10066C0005F0FE051D613B46324615492046FFF755
:10067C0085FF0346E0B1236C042B1ED1012317E048
:10068C00EB11226803F0060343F0F00313613B46C1
:10069C0032460C492046FFF771FF20B1236C042B26
:1006AC0009D1012304E02368EDB21D61DBE70323CC
:1006BC00184603B0F0BD0323FAE70323F8E700BFA5
:1006CC00020001000800010070B504460D461646F4
:1006DC0023685B6913F0800F19D12046FFF705FFE3
:1006EC00B8B9B5F1FF3FF3D025B1FFF76BFD801B17
:1006FC00A842EDD9236C43F0200323640023236329
:10070C00202284F83D2084F83C30032000E00020B7
:10071C0070BD0120FCE770B504460D4616462368F3
:10072C005B6913F0040F19D12046FFF7DEFEB8B950
:10073C00B5F1FF3FF3D025B1FFF744FD801BA84274
:10074C00EDD9236C43F02003236400232363202280
:10075C0084F83D2084F83C30032000E0002070BD7C
:10076C000120FCE7002800F0A28038B5044690F880
:10077C003D30002B4FD0242384F83D302268136881
:10078C0023F00103136000F061FC62684A4B9A424B
:10079C0046D84A4B98428CBF00230123002B40F0D3
:1007AC008880474BA3FB00239B0C22685360616835
:1007BC00414A91423AD801332268136261683E4B38
:1007CC0099423DD8431E4900B3FBF1F30133C3F307
:1007DC000B03042B38BF04232268D361E369216A1D
:1007EC0022680B4313602369E16822680B43936012
:1007FC006369A16922680B43D3602268136843F0D4
:10080C000103136000202064202384F83D30206312
:10081C0084F83E0038BD80F83C3001F0EBFFAAE7CD
:10082C00284B98428CBF00230123B7E74FF49672F4
:10083C0002FB03F3244AA2FB03239B090133BBE70E
:10084C00A368BBB9421E01EB4105B2FBF5F20132C4
:10085C00C2F30B02B2FA82F2520932BBC3B90138AD
:10086C0001EB4103B0FBF3F30133C3F30B0343F48C
:10087C000043B1E7421E01EB810505EB8505B2FB98
:10088C00F5F20132C2F30B02B2FA82F25209E4E73A
:10089C00013801EB810303EB8303B0FBF3F301336A
:1008AC00C3F30B0343F4404396E7012394E7012081
:1008BC0070470120AEE700BFA08601007F841E00B8
:1008CC0083DE1B43FF083D00D34D62102DE9F04140
:1008DC0084B004460E4690461F46FFF773FC94F80E
:1008EC003D30DBB2202B04D00226304604B0BDE8EC
:1008FC00F081054600901923012254492046FFF748
:10090C0009FE002840F0998094F83C30012B00F04F
:10091C009680012384F83C3023681A6812F0010F8A
:10092C0003D11A6842F001021A602268136823F49A
:10093C0000631360212384F83D30102384F83E308B
:10094C0000232364C4F824806785A3F58033E36215
:10095C00638D23852B460A9A31462046FFF756FEB7
:10096C00064660B1236C042B04D1002384F83C3080
:10097C000126BAE7002384F83C300326B5E70023B0
:10098C00039323685A6903929B690393039B10E0BA
:10099C00236C042B55D12268136843F40073136045
:1009AC000126A2E72A460A992046FFF7B4FE002842
:1009BC002BD1238D002B32D02A460A992046FFF7E3
:1009CC0083FE0028E4D1636A5A1C626222681B7899
:1009DC001361638D013B9BB26385238D013B9BB2FD
:1009EC0023852268516911F0040FDBD0002BD9D07C
:1009FC00636A591C61621B781361638D013B9BB266
:100A0C006385238D013B2385CCE7236C042B1AD102
:100A1C002268136843F400731360012665E72268AB
:100A2C00136843F400731360202384F83D300023D3
:100A3C0084F83E3084F83C3057E7022655E702260E
:100A4C0053E7032651E703264FE700BF02001000CF
:100A5C0082B0084B1B68084AA2FB03235B0A00FB0D
:100A6C0003F0019000BF019B5A1E0192002BF9D19B
:100A7C0002B0704734000020D34D621070B582B0C4
:100A8C000446036813F0010F2CD0AB4B5B6803F0EA
:100A9C000C03042B1DD0A84B5B6803F00C03082B34
:100AAC0012D06368B3F5803F41D0002B55D103F1D0
:100ABC00804303F504331A6822F480321A601A68F2
:100ACC0022F480221A6037E09B4B5B6813F4803F62
:100ADC00E7D0994B1B6813F4003F03D06368002BDD
:100AEC0000F0AE81236813F0020F76D0924B5B6856
:100AFC0013F00C0F5FD0904B5B6803F00C03082BCA
:100B0C0054D02369002B00F08A808C4B01221A6090
:100B1C00FFF758FB0546884B1B6813F0020F75D185
:100B2C00FFF750FB401B0228F5D903208BE1824ACA
:100B3C00136843F480331360636843B3FFF742FBDD
:100B4C0005467D4B1B6813F4003FCBD1FFF73AFBF6
:100B5C00401B6428F5D9032075E1B3F5A02F09D00B
:100B6C00754B1A6822F480321A601A6822F48022BB
:100B7C001A60E1E703F18043A3F53C331A6842F4B1
:100B8C0080221A601A6842F480321A60D4E7FFF7A8
:100B9C0019FB0546684B1B6813F4003FA2D0FFF706
:100BAC0011FB401B6428F5D903204CE1624B5B68B8
:100BBC0013F4803FA5D1604B1B6813F0020F04D0D7
:100BCC002369012B01D001203DE15B4A136823F01E
:100BDC00F803616943EAC1031360236813F0080F3B
:100BEC0032D0A369002B5BD0554B01221A60FFF762
:100BFC00E9FA0546504B5B6A13F0020F21D1FFF75F
:100C0C00E1FA401B0228F5D903201CE14A4A13687B
:100C1C0023F0F803616943EAC1031360DDE7474B36
:100C2C0000221A60FFF7CEFA0546434B1B6813F0FF
:100C3C00020FD2D0FFF7C6FA401B0228F5D90320C9
:100C4C0001E10120FFF704FF236813F0040F00F00B
:100C5C009780394BDB6913F0805F33D1364BDA69FF
:100C6C0042F08052DA61DB6903F080530193019BFF
:100C7C000125344B1B6813F4807F25D0E368012BCE
:100C8C0036D0002B4CD103F1804303F504331A6AA0
:100C9C0022F001021A621A6A22F004021A622CE093
:100CAC00274B00221A60FFF78DFA0546224B5B6A30
:100CBC0013F0020FC8D0FFF785FA401B0228F5D9B4
:100CCC000320C0E00025D4E71E4A136843F4807368
:100CDC001360FFF777FA06461A4B1B6813F4807FF4
:100CEC00CCD1FFF76FFA801B6428F5D90320AAE05A
:100CFC00114A136A43F001031362E36873B3FFF7FD
:100D0C0061FA06460C4B1B6A13F0020F37D1FFF742
:100D1C0059FA801B41F288339842F3D9032092E0B0
:100D2C00052B11D0044B1A6A22F001021A621A6ABE
:100D3C0022F004021A62E0E7001002400000424276
:100D4C008004424200700040414B1A6A42F0040297
:100D5C001A621A6A42F001021A62CEE7FFF732FAFF
:100D6C0006463B4B1B6A13F0020F08D0FFF72AFA1A
:100D7C00801B41F288339842F3D9032063E0E5B934
:100D8C00E369002B5ED0324A526802F00C02082A4A
:100D9C005BD0022B17D02F4B00221A60FFF712FAF0
:100DAC0004462B4B1B6813F0007F47D0FFF70AFA61
:100DBC00001B0228F5D9032045E0254AD36923F00E
:100DCC008053D361DCE7234B00221A60FFF7FAF95A
:100DDC0005461F4B1B6813F0007F06D0FFF7F2F996
:100DEC00401B0228F5D903202DE0236AB3F5803F80
:100DFC001AD017494B6823F47413226A606A0243B1
:100E0C0013434B60134B01221A60FFF7DBF90446C6
:100E1C000F4B1B6813F0007F0ED1FFF7D3F9001BAB
:100E2C000228F5D903200EE0094A536823F4003355
:100E3C00A1680B435360DCE7002004E0002002E0D3
:100E4C00012000E0002002B070BD0120FBE700BFD4
:100E5C00001002406000424210B487B0164C94E877
:100E6C000F000DF1180C0CE90F00238AADF80430BB
:100E7C00124B5B6803F00C02082A1AD1C3F38342AD
:100E8C00624412F8102C13F4803F05D10C4800FB7F
:100E9C0002F007B010BC7047084B5B68C3F34043CB
:100EAC00634413F8143C074800FB02F0B0FBF3F06A
:100EBC00EFE70448EDE700BF8C3200080010024059
:100ECC0000093D0000127A00594B1B6803F0070320
:100EDC008B420CD2564A136823F007030B43136062
:100EEC00136803F007038B4201D00120704770B5E3
:100EFC00036813F0020F06D04E4A536823F0F00338
:100F0C008468234353600C460546036813F0010FB5
:100F1C0052D04368012B23D0022B28D0454A1268AB
:100F2C0012F0020F00F0828042494A6822F003025C
:100F3C0013434B60FFF746F906466B68012B1DD037
:100F4C00022B2AD03B4B5B6813F00C0F34D0FFF70D
:100F5C0039F9801B41F288339842F3D9032064E0BD
:100F6C00344A126812F4003FDED101205DE0314AB0
:100F7C00126812F0007FD7D1012056E02D4B5B6830
:100F8C0003F00C03042B17D0FFF71CF9801B41F264
:100F9C0088339842F2D9032047E0264B5B6803F074
:100FAC000C03082B08D0FFF70DF9801B41F2883396
:100FBC009842F2D9032038E01D4B1B6803F007035D
:100FCC00A3420CD91A4A136823F007032343136076
:100FDC00136803F00703A34201D0012025E02B681E
:100FEC0013F0040F06D0134A536823F4E063E96846
:100FFC000B4353602B6813F0080F07D00D4A53684E
:10100C0023F46053296943EAC1035360FFF724FFBB
:10101C00084B5B68C3F30313074AD35CD840074BF8
:10102C0018600020FFF78CF8002070BD0120FCE751
:10103C000020024000100240A032000834000020C2
:10104C00014B1868704700BF3400002008B5FFF74B
:10105C00F7FF044B5B68C3F30223034AD35CD8400D
:10106C0008BD00BF00100240B032000808B5FFF701
:10107C00E7FF044B5B68C3F3C223034AD35CD8403D
:10108C0008BD00BF00100240B032000810B4036A63
:10109C00046A24F001040462846924F0F00444EA34
:1010AC00021223F00A030B438261036210BC7047E7
:1010BC0010B4036A23F0100303628469036A24F4F6
:1010CC00704444EA023223F0A00343EA0113826124
:1010DC00036210BC7047836823F0700341F0070172
:1010EC0019438160704710B4846824F47F4442EA49
:1010FC0003230B432343836010BC70470268D368FF
:10110C0043F00103D3600268136843F001031360DA
:10111C00002070470268D36823F00103D360036892
:10112C00196A41F21112114208D1196A40F2444273
:10113C00114203D11A6822F001021A600020704794
:10114C0090F83C30012B7DD010B50446012380F87B
:10115C003C30022380F83D300268936823F47F43CF
:10116C0023F0770393600B68402B57D010D9702B6A
:10117C003ED01FD8502B47D0602B32D1CA6849685B
:10118C000068FFF795FF60212068FFF7A4FF28E0B7
:10119C00102B4DD008D9202B4FD0302B21D1302102
:1011AC000068FFF798FF1CE0DBB900210068FFF72F
:1011BC0092FF16E0B3F5805F0ED0B3F5005F10D14F
:1011CC00CB684A6889680068FFF78DFF22689368CE
:1011DC0043F48043936004E00268936823F00703B0
:1011EC009360012384F83D30002084F83C0010BD4E
:1011FC00CB684A6889680068FFF775FF22689368B6
:10120C0043F077039360ECE7CA6849680068FFF71E
:10121C003DFF50212068FFF75EFFE2E7CA6849688E
:10122C000068FFF733FF40212068FFF754FFD8E731
:10123C0010210068FFF74FFFD3E720210068FFF76C
:10124C004AFFCEE7022070477047704770477047DF
:10125C0010B5044603681A6912F0020F11D0DA684F
:10126C0012F0020F0DD06FF002021A610123037706
:10127C0003689B6913F0030F70D0FFF7E6FF0023A0
:10128C00237723681A6912F0040F12D0DA6812F06F
:10129C00040F0ED06FF004021A6102232377236827
:1012AC009B6913F4407F5FD02046FFF7CEFF0023ED
:1012BC00237723681A6912F0080F12D0DA6812F03B
:1012CC00080F0ED06FF008021A61042323772368ED
:1012DC00DB6913F0030F4ED02046FFF7B6FF002357
:1012EC00237723681A6912F0100F12D0DA6812F003
:1012FC00100F0ED06FF010021A61082323772368A9
:10130C00DB6913F4407F3DD02046FFF79EFF00239E
:10131C00237723681A6912F0010F03D0DA6812F0F0
:10132C00010F36D123681A6912F0800F03D0DA68E6
:10133C0012F0800F34D123681A6912F0400F03D0D9
:10134C00DA6812F0400F32D123681A6912F0200FBC
:10135C0003D0DA6812F0200F30D110BDFFF774FF04
:10136C002046FFF773FF8AE72046FFF76DFF204604
:10137C00FFF76CFF9BE72046FFF766FF2046FFF761
:10138C0065FFACE72046FFF75FFF2046FFF75EFFE7
:10139C00BDE76FF001021A61204601F09FF9C1E729
:1013AC006FF080021A61204600F08DF8C3E76FF0F1
:1013BC0040021A612046FFF74AFFC5E76FF0200292
:1013CC001A61204600F07EF8C7E7000003681B4A4C
:1013DC0090420AD0B0F1804F07D0A2F594329042DF
:1013EC0003D002F58062904203D123F070034A6867
:1013FC001343124A90420AD0B0F1804F07D0A2F5A5
:10140C009432904203D002F58062904203D123F4CF
:10141C004073CA68134323F080034A691343036083
:10142C008B68C3620B688362044B984202D0012321
:10143C00436170470B690363F9E700BF002C01405F
:10144C00A8B110B5044690F83D305BB1022384F886
:10145C003D30211D2068FFF7B9FF012384F83D3092
:10146C00002010BD80F83C3001F0EAF9EEE70120D5
:10147C00704790F83C30012B22D030B4012280F818
:10148C003C20022380F83D300468636823F070032D
:10149C006360046863680D682B4363600468A36829
:1014AC0023F08003A3600468A36849680B43A3601E
:1014BC0080F83D20002380F83C30184630BC704743
:1014CC0002207047704770472DE9F84305460268C3
:1014DC00136923F44053C1680B4313618368026999
:1014EC001343426913430168CA6822F4B05222F0D4
:1014FC000C021343CB600268536923F44073816977
:10150C000B4353610268594B9A4257D0FFF79EFD2B
:10151C0000EB800000EB80006C68A400B0FBF4F4DE
:10152C00534FA7FB043464092601FFF78FFD00EB32
:10153C00800000EB80006C68A400B0FBF4F9FFF7AE
:10154C0085FD00EB800000EB80006C68A400B0FB14
:10155C00F4F4A7FB043464094FF0640808FB1494FA
:10156C0024013234A7FB0434640904F0F00434443D
:10157C00FFF76CFD00EB800000EB80006E68B6009E
:10158C00B0FBF6F6FFF762FD00EB800000EB80008D
:10159C006B689B00B0FBF3F0A7FB0030400908FB25
:1015AC0010684FEA081808F13208A7FB0837C7F390
:1015BC0043172B6827449F60BDE8F883FFF756FD5F
:1015CC0000EB800000EB80006C68A400B0FBF4F42E
:1015DC00274FA7FB043464092601FFF747FD00EBF6
:1015EC00800000EB80006C68A400B0FBF4F9FFF7FE
:1015FC003DFD00EB800000EB80006C68A400B0FBAC
:10160C00F4F4A7FB043464094FF0640808FB149449
:10161C0024013234A7FB0434640904F0F00434448C
:10162C00FFF724FD00EB800000EB80006E68B60035
:10163C00B0FBF6F6FFF71AFD00EB800000EB800024
:10164C006B689B00B0FBF3F0A7FB0030400908FB74
:10165C0010684FEA081808F13208A7FB0837C7F3DF
:10166C0043172B6827449F60A6E700BF0038014052
:10167C001F85EB512DE9F04105460F46164698465D
:10168C00069C2B681B6837EA03030CBF012300235D
:10169C00B3421DD1B4F1FF3FF3D02CB1FEF792FD54
:1016AC00A0EB0800A042ECD92A68D36823F4D073CD
:1016BC00D3602A68536923F001035361202385F812
:1016CC00393085F83A30002385F83830032000E0B3
:1016DC000020BDE8F08158B310B5044690F83930BD
:1016EC000BB3242384F839302268D36823F40053D5
:1016FC00D3602046FFF7E8FE2268136923F4904379
:10170C0013612268536923F02A0353612268D3685A
:10171C0043F40053D3600020E063202384F8393075
:10172C0084F83A3010BD80F8383001F0C1F8D8E7B1
:10173C00012070472DE9F04182B01E4690F83930F7
:10174C00DBB2202B55D104460D469046002955D0CE
:10175C00002A55D090F83830012B53D0012380F853
:10176C0038300023C363212380F83930FEF72AFD7B
:10177C000746A4F82480A4F8268010E000963B4687
:10178C00002280212046FFF775FF00283CD12B88D2
:10179C002268C3F3080353602369C3B90235E38C91
:1017AC009BB2B3B1E38C013B9BB2E384A368B3F56A
:1017BC00805FE3D000963B46002280212046FFF755
:1017CC0059FF18BB2A7823685A600135E7E70135C1
:1017DC00E5E700963B46002240212046FFF74AFFF2
:1017EC000346A8B9202284F83920002284F8382036
:1017FC0000E00223184602B0BDE8F0810123F9E7AE
:10180C000123F7E70223F5E70323F3E70323F1E7CB
:10181C000323EFE730B591B0012206924FF48033E9
:10182C000793002408940A9202250D950E934FF409
:10183C00E0130F9306A8FFF721F90F2301930295EC
:10184C0003944FF4806304930594294601A8FFF791
:10185C003BFBFFF7F5FB084BA3FB00308009FEF7C1
:10186C001DFD0420FEF730FD224621464FF0FF30CF
:10187C00FEF7D4FC11B030BDD34D621008B5094849
:10188C00094B0360094B436000238360C3604FF432
:10189C008042026143618361C3610362FEF762FFB0
:1018AC0008BD00BF5C01002000580040A08601006C
:1018BC0030B587B00F4C4FF08043236048F69F4300
:1018CC0063600025A5601323E3602561A5612046B4
:1018DC00FFF7B6FD06A94FF4805341F8103D2046A2
:1018EC00FFF72EFC0095019569462046FFF7C1FDD8
:1018FC0007B030BDF001002030B587B00F4C104B55
:10190C00236048F69F4363600025A5600138E060C2
:10191C002561A5612046FFF793FD06A94FF480537E
:10192C0041F8103D2046FFF70BFC009501956946E8
:10193C002046FFF79EFD07B030BD00BF1C01002004
:10194C000008004008B50848084B03604FF4E13329
:10195C00436000238360C36003610C224261836196
:10196C00C361FFF7B8FE08BDB0010020003801408C
:10197C00F0B589B02D4B9A6942F010029A619A69C0
:10198C0002F010020092009A9A6942F020029A61C9
:10199C009A6902F020020192019A9A6942F00402BB
:1019AC009A619A6902F004020292029A9A6942F0D0
:1019BC0008029A619B6903F008030393039B1C4F75
:1019CC0000224FF400513846FEF785FD00224FF4FB
:1019DC0080413846FEF77FFD4FF4604304930125A8
:1019EC000595002406940226079604A93846FEF7AE
:1019FC0081FCC02304930594069504A90D48FEF7B9
:101A0C0079FC3823049305940695A7F5806704A9FF
:101A1C003846FEF76FFC049605950694079604A9C4
:101A2C003846FEF767FC09B0F0BD00BF001002405D
:101A3C00001001400008014008B5FEF7A5FBFFF7B8
:101A4C00E9FEFFF795FFFFF733FFFFF77BFFFFF78B
:101A5C0015FF08BD00B585B000F0F0030001C0B261
:101A6C0043F00C028DF80C2043F008038DF80D3078
:101A7C0040F00C038DF80E3040F008008DF80F008C
:101A8C0064230093042303AA4E210348FEF71EFF90
:101A9C0005B05DF804FB00BF5C01002000B585B00B
:101AAC0000F0F0030001C0B243F00D028DF80C20E1
:101ABC0043F009038DF80D3040F00D038DF80E3016
:101ACC0040F009008DF80F0064230093042303AA4F
:101ADC004E210348FEF7FAFE05B05DF804FB00BF8B
:101AEC005C01002008B50220FFF7B4FF2820FFF7A7
:101AFC00B1FF0C20FFF7AEFF8020FFF7ABFF08BD56
:101B0C0010B5044602E00134FFF7C8FF2078002826
:101B1C00F9D110BD08B5FFF78FFF0220FFF7ECFEDF
:101B2C000248FFF7EBFAFFF7DDFFFEE71C01002090
:101B3C0008B540213148FEF7C7FC60B9304A13683C
:101B4C00591C11602F4A1268934204D82D4A1379FC
:101B5C005B0013712EE040212848FEF7B5FCE8B974
:101B6C00274A1368591C1160264A1268934215D9EA
:101B7C0002F1320399421DD30132214B1A604FF40A
:101B8C00005100F1804000F58830FEF7AAFC0A23D2
:101B9C0018221D491D48FFF7CDFD0BE040211748C9
:101BAC00FEF792FC01280AD0154B00221A60154B47
:101BBC00FF221A71134B1B79012B0DD008BD104B52
:101BCC001A68104B1B689A42EED80E4A13795B00C8
:101BDC0043F001031371EDE7094B5B6833B10C481B
:101BEC00FFF798FA064B00225A60E7E70848FFF720
:101BFC0085FA034B01225A60E0E700BF0008014060
:101C0C00B800002008000020B8320008B001002005
:101C1C00F001002008B580213848FEF755FC60B96A
:101C2C00374A9368591C9160364A9268934204D89B
:101C3C00344A137B5B0013732EE080212F48FEF790
:101C4C0043FCE8B92E4A9368591C91602D4A92685E
:101C5C00934215D902F1320399421DD30132284B1C
:101C6C009A604FF4005100F1804000F58830FEF787
:101C7C0038FC0A23162224492448FFF75BFD0BE0AD
:101C8C0080211E48FEF720FC01280AD01C4B0022A4
:101C9C009A601C4BFF221A731A4B1B7B012B0DD025
:101CAC0008BD174B9A68174B9B689A42EED8154A99
:101CBC00137B5B0043F001031373EDE71448FFF74C
:101CCC0029FA0F4A0023D360136153615360114901
:101CDC000B6011490B6011490B6011490B601149E4
:101CEC000B6011490B6011490B6011490B601149D4
:101CFC000B609361D3611362D2E700BF000801400F
:101D0C00B800002008000020D4320008B0010020E8
:101D1C00F00100204C02002050020020380200206C
:101D2C003402002070020020300200206C020020DF
:101D3C007402002068020020F0B587B008218748A3
:101D4C00FEF7C2FB60B9864A536A591C5162854A38
:101D5C001269934204D8834A137D5B0013758AE0A1
:101D6C0008217E48FEF7B0FB002878D17C4A536AE4
:101D7C00591C51627B4A1269934270D902F13203A9
:101D8C00994278D30132764B5A62774D01224FF447
:101D9C0000512846FEF79FFB704C01220221204681
:101DAC00FEF799FB4FF49670FEF712FA002202210F
:101DBC002046FEF790FB3220FEF70AFA01220221A0
:101DCC002046FEF788FB4FF49670FEF701FA0022CE
:101DDC0002212046FEF77FFB3220FEF7F9F90122A3
:101DEC0002212046FEF777FB4FF49670FEF7F0F9D0
:101DFC00002202212046FEF76EFB3220FEF7E8F9A6
:101E0C00012202212046FEF766FB4FF49670FEF786
:101E1C00DFF9002202212046FEF75DFB3220FEF79F
:101E2C00D7F9012202212046FEF755FB4FF496709C
:101E3C00FEF7CEF9002202212046FEF74CFB3220A1
:101E4C00FEF7C6F900224FF400512846FEF743FB7B
:101E5C000A23112245494648FFF76CFC0BE0082188
:101E6C003E48FEF731FB01280BD03D4B00225A6255
:101E7C003C4BFF221A753B4B1B7DFE2B0ED007B043
:101E8C00F0BD374B5A6A374B1B699A42EDD8354A2D
:101E9C00137D5B0043F001031375ECE7304BDA68FC
:101EAC00996A511A0029B8BF4942324801609A62B6
:101EBC001A69D86A161A30480660DA625A691D6BBC
:101ECC00551B2E4805601A635B68012B10D0244B00
:101EDC0000229A61224B9A69042A0ED9204B0522C2
:101EEC009A610A23122226492148FFF723FCC6E7F0
:101EFC001B4A936901339361ECE72248A0FB05432D
:101F0C00DB08214CA0FB01C7FF0807EB870E4FEA4B
:101F1C004E0CA1EB0C0104910397A0FB0601C90820
:101F2C0001EB81077800301A0290019103EB8300DA
:101F3C004100691A00911549204600F075FD0C4DC1
:101F4C000A230E2212492846FFF7F4FB0A230D221E
:101F5C0021462846FFF7EEFB91E700BF000C01403D
:101F6C00B80000200800002000100140EC320008EE
:101F7C00B00100204C02002050020020380200204A
:101F8C0024330008CDCCCCCC3C020020003300081C
:101F9C0014330008F0B587B010218748FEF794FA87
:101FAC0060B9864A536B591C5163854A92699342B6
:101FBC0004D8834A137F5B0013778AE010217E4894
:101FCC00FEF782FA002878D17C4A536B591C516376
:101FDC007B4A9269934270D902F13203994278D3C9
:101FEC000132764B5A63774D01224FF480412846DB
:101FFC00FEF771FA704C012202212046FEF76BFAB3
:10200C004FF49670FEF7E4F8002202212046FEF70A
:10201C0062FA3220FEF7DCF8012202212046FEF79C
:10202C005AFA4FF49670FEF7D3F80022022120469C
:10203C00FEF751FA3220FEF7CBF80122022120469E
:10204C00FEF749FA4FF49670FEF7C2F8002202210F
:10205C002046FEF740FA3220FEF7BAF801220221A0
:10206C002046FEF738FA4FF49670FEF7B1F80022CE
:10207C0002212046FEF72FFA3220FEF7A9F80122A2
:10208C0002212046FEF727FA4FF49670FEF7A0F8CF
:10209C00002202212046FEF71EFA3220FEF798F8A5
:1020AC0000224FF480412846FEF715FA0A2311222C
:1020BC0045494648FFF73EFB0BE010213E48FEF732
:1020CC0003FA01280BD03D4B00225A633C4BFF22F4
:1020DC001A773B4B1B7FFE2B0ED007B0F0BD374B56
:1020EC005A6B374B9B699A42EDD8354A137F5B008C
:1020FC0043F001031377ECE7304BDA68996B511A14
:10210C000029B8BF4942324801609A631A69D86BFA
:10211C00161A30480660DA635A691D6C551B2E4836
:10212C0005601A645B68012B10D0244B0022DA6125
:10213C00224BDA69042A0ED9204B0522DA610A23D4
:10214C00122226492148FFF7F5FAC6E71B4AD36944
:10215C000133D361ECE72248A0FB0543DB08214C9B
:10216C00A0FB01C7FF0807EB870E4FEA4E0CA1EB53
:10217C000C0104910397A0FB0601C90801EB810730
:10218C007800301A0290019103EB83004100691A28
:10219C0000911549204600F047FC0C4D0A230E22F5
:1021AC0012492846FFF7C6FA0A230D222146284673
:1021BC00FFF7C0FA91E700BF000C0140B800002007
:1021CC00080000200010014038330008B001002046
:1021DC003402002070020020300200205C33000822
:1021EC00CDCCCCCC3C020020003300084C33000892
:1021FC00F0B587B020218A48FEF766F970B9894A94
:10220C00536C591C5164884A126A934206D8864A08
:10221C0092F824305B0082F824308BE02021804837
:10222C00FEF752F9002878D17E4A536C591C516440
:10223C007D4A126A934270D902F13203994279D3E2
:10224C000132784B5A64794D01224FF400412846F3
:10225C00FEF741F9724C012202212046FEF73BF9B0
:10226C004FF49670FDF7B4FF002202212046FEF7D2
:10227C0032F93220FDF7ACFF012202212046FEF795
:10228C002AF94FF49670FDF7A3FF00220221204695
:10229C00FEF721F93220FDF79BFF01220221204697
:1022AC00FEF719F94FF49670FDF792FF0022022108
:1022BC002046FEF710F93220FDF78AFF0122022199
:1022CC002046FEF708F94FF49670FDF781FF0022C7
:1022DC0002212046FEF7FFF83220FDF779FF01229C
:1022EC0002212046FEF7F7F84FF49670FDF770FFC9
:1022FC00002202212046FEF7EEF83220FDF768FF9F
:10230C0000224FF400412846FEF7E5F80A2311227B
:10231C0047494848FFF70EFA0CE020214048FEF7E9
:10232C00D3F801280DD03F4B00225A643E4BFF22BC
:10233C0083F824203C4B93F82430FE2B10D007B0AC
:10234C00F0BD384B5A6C384B1B6A9A42EBD8364A64
:10235C0092F824305B0043F0010382F82430E9E763
:10236C00304BDA68996C511A0029B8BF494232488F
:10237C0001609A641A69D86C161A30480660DA64DF
:10238C005A691D6D551B2E4805601A655B68012B3B
:10239C0010D0244B00221A62224B1A6A042A0ED93E
:1023AC00204B05221A620A23122226492148FFF7E4
:1023BC00C1F9C4E71B4A136A01331362ECE72248E4
:1023CC00A0FB0543DB08214CA0FB01C7FF0807EB72
:1023DC00870E4FEA4E0CA1EB0C0104910397A0FB66
:1023EC000601C90801EB81077800301A02900191AF
:1023FC0003EB83004100691A00911549204600F057
:10240C0013FB0C4D0A230E2212492846FFF792F9B2
:10241C000A230D2221462846FFF78CF98FE700BFCF
:10242C00000C0140B8000020080000200010014002
:10243C0070330008B00100206C02002074020020F0
:10244C006802002094330008CDCCCCCC3C02002098
:10245C0000330008843300082DE9F04186B0802059
:10246C00FFF7F8FA874CD4F814C02669E768864958
:10247C00A1FB0C32D20802EB82004300834DA1FB7E
:10248C0007E0C00800EB80084FEA480EA7EB0E07E8
:10249C0003970290A1FB0601C90801EB81077800A4
:1024AC00361A01960091ACEB03037949284600F0EB
:1024BC00BBFA2846FFF724FBE220FFF7CBFA754B5B
:1024CC001B882B802846FFF71BFBA269724B9B6A6B
:1024DC009A4280F0AD80C020FFF7BCFA6F4B1C68AD
:1024EC006F4B1E686F4B1F686749A1FB0423DB0809
:1024FC00644A9269A1FB07C0C00800EB800E4FEA4A
:10250C004E0CA7EB0C0704970390A1FB0601C9081E
:10251C0001EB81077800361A0296019103EB8300D8
:10252C004100641A00946049284600F07DFA284660
:10253C00FFF7E6FA534BDA69574B9B6A9A4280F0E5
:10254C0086809420FFF786FA584B1C68584B1E68FF
:10255C00584B1F684C49A1FB0423DB08494AD2693C
:10256C004A4DA1FB07C0C00800EB800E4FEA4E0C91
:10257C00A7EB0C0704970390A1FB0601C90801EB1C
:10258C0081077800361A0296019103EB8300410013
:10259C00641A00944849284600F046FA2846FFF78A
:1025AC00AFFA384B1A6A3C4B9B6A9A425ED2D420E3
:1025BC00FFF750FA414B1C68414B1E68414B1F689A
:1025CC003149A1FB0423DB082E4A126A2F4DA1FBD3
:1025DC0007C0C00800EB800E4FEA4E0CA7EB0C07AF
:1025EC0004970390A1FB0601C90801EB8107780051
:1025FC00361A0296019103EB83004100641A009491
:10260C003149284600F010FA2846FFF779FA1D4B9D
:10261C009A69214B9B6A9A4207D31A4AD269934210
:10262C0003D8184A126A934227D906B0BDE8F08144
:10263C00C020FFF70FFA154C244B07CB20606160CC
:10264C00A2601B7823732046FFF75AFA72E7942096
:10265C00FFF700FA0D4C1E4B07CB20606160A260A7
:10266C001B7823732046FFF74BFA9AE7D420FFF729
:10267C00F1F91848FFF744FAC9E71748FEF74AFD85
:10268C00D3E700BFB8000020CDCCCCCC5402002046
:10269C00A8330008FC330008080000203802002092
:1026AC00500200204C020020C033000830020020F1
:1026BC007002002034020020E83300086802002079
:1026CC00740200206C02002010340008D83300087B
:1026DC000034000828340008F001002008B5036815
:1026EC00B3F1804F04D00268184B9A4220D008BD39
:1026FC00174AD3680133D360632B05D9134612698B
:10270C0001321A610022DA60114B1B693B2B05D98F
:10271C000F4B5A6901325A6100221A610C4B5B69EA
:10272C00632BE0D90A4B0022DA601A615A61DAE7AE
:10273C00FFF7FEF9FFF76EFAFFF7FEFAFFF72AFC38
:10274C00FFF756FDFFF788FED1E700BF00080040F9
:10275C00B800002000B583B0244B9A6942F0010206
:10276C009A619A6902F001020092009ADA6942F0C9
:10277C008052DA61DB6903F080530193019B0320E3
:10278C00FDF73AFD002211466FF00B00FDF746FDF8
:10279C00002211466FF00A00FDF740FD00221146A1
:1027AC006FF00900FDF73AFD002211466FF00400AE
:1027BC00FDF734FD002211466FF00300FDF72EFDEE
:1027CC00002211466FF00100FDF728FD0022114692
:1027DC004FF0FF30FDF722FD054A536823F0E0630C
:1027EC0043F00073536003B05DF804FB001002402B
:1027FC000000014002680F4B9A4200D0704700B5B0
:10280C0087B04FF440630293122303930323059381
:10281C0002A90948FDF76EFD084BDA6942F4800203
:10282C00DA61DB6903F480030193019B07B05DF867
:10283C0004FB00BF00580040000C01400010024097
:10284C0000B583B00368B3F1804F05D0164A9342AC
:10285C0016D003B05DF804FB03F50433DA6942F0DB
:10286C000102DA61DB6903F001030093009B002293
:10287C0011461C20FDF7D2FC1C20FDF703FDE8E7F8
:10288C000A4BDA6942F00402DA61DB6903F00403F3
:10289C000193019B002201211E20FDF7BFFC1E208D
:1028AC00FDF7F0FCD5E700BF000800400010024027
:1028BC000268144B9A4200D0704710B586B003F5ED
:1028CC0058439A6942F480429A619B6903F48043AD
:1028DC000193019B4FF40073029302230393032390
:1028EC000593094C02A92046FDF704FD4FF48063C3
:1028FC00029300230393049302A92046FDF7FAFCEC
:10290C0006B010BD00380140000801407047FEE7DA
:10291C00FEE7FEE7FEE770477047704708B5FDF726
:10292C0045FCFDF7E2FC08BD08B50248FEF790FC3B
:10293C0008BD00BFF001002008B50248FEF788FC76
:10294C0008BD00BF1C0100200F4B1A6842F00102A9
:10295C001A6059680D4A0A405A601A6822F084724B
:10296C0022F480321A601A6822F480221A605A68A3
:10297C0022F4FE025A604FF41F029A60044B4FF08F
:10298C0000629A60704700BF001002400000FFF820
:10299C0000ED00E0002103E00B4B5B584350043189
:1029AC000A480B4B42189A42F6D30A4A02E000231B
:1029BC0042F8043B084B9A42F9D3FFF7C5FF00F0ED
:1029CC000FF8FFF7A7F870477034000800000020DC
:1029DC009C0000209C0000207C020020FEE70000F0
:1029EC0070B500250C4E0D4CA41BA410A54209D1AA
:1029FC0000F03AFC00250A4E0A4CA41BA410A54278
:102A0C0005D170BD56F8253098470135EEE756F8DC
:102A1C00253098470135F2E768340008683400081F
:102A2C00683400086C3400080EB46FF0004100B537
:102A3C009CB01DAB0290069007910491084809497F
:102A4C0053F8042B0591006802A9019300F066F875
:102A5C000022029B1A701CB05DF804EB03B07047A7
:102A6C00380000200802FFFF2DE9F0478E688246EF
:102A7C009E420C469046994637D88A8912F4906F3C
:102A8C0031D00223256809696F1A656905EB450584
:102A9C0095FBF3F509F101033B449D4238BF1D46FC
:102AAC00530530D5294600F037FB064650B90C23A8
:102ABC004FF0FF30CAF80030A38943F04003A381E4
:102ACC00BDE8F0873A46216900F0B6FAA38923F4F1
:102ADC00906343F08003A38126613E4426604E46FA
:102AEC006561ED1BA5604E4500D94E463246414608
:102AFC00206800F0ACFAA36800209B1BA36023683D
:102B0C001E442660DCE72A4600F060FB06460028DF
:102B1C00E2D12169504600F0B3FAC8E72DE9F04F35
:102B2C001D468B899DB01F0680460C4616460FD558
:102B3C000B696BB9402100F0EFFA2060206128B9D5
:102B4C000C23C8F800304FF0FF30C8E0402363611D
:102B5C000023099320238DF8293030234FF0010BEB
:102B6C008DF82A30039537463D4615F8013B0BB1DD
:102B7C00252B3ED1B7EB060A0BD0534632462146E5
:102B8C004046FFF771FF013000F0A480099B5344CD
:102B9C0009933B78002B00F09D8000234FF0FF320F
:102BAC00CDE90523049307938DF853301A932F46E0
:102BBC00052217F8011B504800F030FA049BD0B9DD
:102BCC00D90644BF20228DF853201A0744BF2B226C
:102BDC008DF853202A782A2A15D02F4600200A2552
:102BEC00079A394611F8013B303B092B4DD9B8B146
:102BFC000FE02F46B8E7404A3D46801A0BFA00F02A
:102C0C0018430490D3E7039A111D12680391002A0C
:102C1C0001DB079204E0524243F002030792049353
:102C2C003B782E2B0CD17B782A2B33D1039B02378C
:102C3C001A1D1B680392002BB8BF4FF0FF3305938E
:102C4C002E4D03223978284600F0E8F938B140239C
:102C5C00401B03FA00F0049B0137034304933978BB
:102C6C00062227487E1C8DF8281000F0D7F9002882
:102C7C0038D0244B13BB039B073323F007030833D3
:102C8C000393099B4B4409936DE705FB023201202A
:102C9C000F46A6E700230A25194601370593384647
:102CAC0010F8012B303A092A03D9002BC8D0059112
:102CBC00C6E705FB012101230746F0E703AB0093B0
:102CCC002246114B04A94046AFF30080B0F1FF3F00
:102CDC008146D6D1A3895B063FF535AF09981DB067
:102CEC00BDE8F08F03AB00932246074B04A9404686
:102CFC0000F082F8EAE700BF343400083A340008E8
:102D0C003E34000800000000752A00082DE9F04749
:102D1C0091461F468A680B6906469342B8BF134614
:102D2C00C9F8003091F843200C46DDF8208012B130
:102D3C000133C9F800302368990642BFD9F8003036
:102D4C000233C9F80030256815F0060507D104F1E7
:102D5C00190AE368D9F800209B1AAB4229DC94F8D5
:102D6C0043302268003318BF012392062ED404F19D
:102D7C00430239463046C047013021D02368E5680C
:102D8C0003F00603042B18BF0025D9F800204FF0E0
:102D9C00000908BFAD1AA368226908BF25EAE575CA
:102DAC009342C4BF9B1AED181A344D451AD100201A
:102DBC0008E00123524639463046C047013003D162
:102DCC004FF0FF30BDE8F0870135C2E73020E11845
:102DDC0081F843005A1C94F845102244023382F8BF
:102DEC004310C4E70123224639463046C047013020
:102DFC00E6D009F10109D8E72DE9F04301F1430CC4
:102E0C000C46097E85B06E291746064698460C9AE4
:102E1C0000F0B38022D8632936D00AD8002900F0FC
:102E2C00B980582900F0838004F1420584F84210DF
:102E3C0032E0642901D06929F6D1206813680506AF
:102E4C0003F104012AD51B681160002B03DA2D2233
:102E5C005B4284F843206F480A2239E0732900F062
:102E6C009D8008D86F2920D07029DDD1236843F0CC
:102E7C002003236003E0752917D07829D4D1782357
:102E8C00654884F8453055E0136804F14205191D76
:102E9C001B68116084F8423001238CE01B6810F031
:102EAC00400F116018BF1BB2CFE713682568181DBF
:102EBC001060280601D51B6802E06806FBD51B884C
:102ECC006F2914BF0A2208225248002184F84310AB
:102EDC006568002DA560C0F29580216821F0040181
:102EEC002160002B3DD1002D40F08E806546082AD4
:102EFC000BD12368DB0708D5236962689A42DEBFD1
:102F0C00302305F8013C05F1FF35ACEB05032361DB
:102F1C00CDF800803B4603AA21463046FFF7F6FE6B
:102F2C0001304DD14FF0FF3005B0BDE8F08339488A
:102F3C0084F84510136821681D1D1B6815600A066E
:102F4C000BD5CA0744BF41F0200121601BB9226890
:102F5C0022F0200222601022B7E74D0648BF9BB238
:102F6C00EFE76546B3FBF2F102FB1133C35C05F8E6
:102F7C00013D0B460029F5D1B9E713682568181DEA
:102F8C006169106028061B6801D5196002E06A06A9
:102F9C00FBD51980002365462361B9E71368191D19
:102FAC0011601D6862680021284600F037F808B1EE
:102FBC00401B606063682361002384F84330A7E7FB
:102FCC0023692A4639463046C0470130AAD02368C7
:102FDC009B0713D4E068039B9842B8BF1846A3E73D
:102FEC0001234A4639463046C04701309AD0013554
:102FFC00E368039A9B1AAB42F2DCEBE7002504F181
:10300C001909F5E7002BACD1037804F1420584F8DB
:10301C0042306CE7453400085634000810B5C9B28C
:10302C0002449042034601D1002303E01C78013096
:10303C008C42F6D1184610BD10B5431E0A4491427D
:10304C0000D110BD11F8014B03F8014FF7E788428E
:10305C0010B501EB020307D8421E99420AD011F8B1
:10306C00014B02F8014FF8E78342F5D98118D21AC7
:10307C00D34200D110BD13F8014D01F8014DF7E713
:10308C0038B50546002943D051F8043C0C1F002BE1
:10309C00B8BFE41800F0D0F81E4A1368104633B9D4
:1030AC00636014602846BDE8384000F0C6B8A342FF
:1030BC000BD921686218934201BF1A685B685218D9
:1030CC00226063600460EDE713465A680AB1A242BD
:1030DC00FAD919685818A0420BD120680144581825
:1030EC0082421960DED110685268014419605A603E
:1030FC00D8E702D90C232B60D4E7206821188A4228
:10310C0001BF116852680918216062605C60C9E7F0
:10311C0038BD00BF0C01002070B5CD1C25F0030597
:10312C0008350C2D38BF0C25002D064601DBA942B5
:10313C0003D90C233360002070BD00F07DF8214AC8
:10314C001468214691B9204C23681BB9304600F015
:10315C0063F820602946304600F05EF8431C24D109
:10316C000C233046336000F068F8E4E70B685B1B17
:10317C0018D40B2B0FD90B60CC18CD50304600F067
:10318C005CF804F10B00231D20F00700C31AD3D008
:10319C005A42E250D0E74B688C4216BF6360136012
:1031AC000C46EBE70C464968CCE7C41C24F003043E
:1031BC00A04205D0211A304600F02EF80130CFD0B5
:1031CC002560DBE70C01002010010020F8B5074654
:1031DC0014460E4621B9BDE8F8401146FFF79CBFD6
:1031EC0022B9FFF74DFF25462846F8BD00F026F81A
:1031FC00A0420FD221463846FFF78EFF0546002825
:10320C00F2D031462246FFF717FF31463846FFF71A
:10321C0037FFE9E73546E7E738B50023054C0546A7
:10322C000846236000F012F8431C02D1236803B156
:10323C002B6038BD780200207047704751F8043C71
:10324C00181F002BBCBF0B58C0187047044B02460C
:10325C00196809B903491960186802441A60704763
:10326C001401002080020020F8B500BFF8BC08BC97
:10327C009E467047F8B500BFF8BC08BC9E46704728
:10328C0002030405060708090A0B0C0D0E0F10109B
:10329C000102000000000000000000000102030415
:1032AC000607080900000000010203040A0D42751C
:1032BC0074746F6E5F52756E53746F70203A204544
:1032CC0072726F72000000000A0D427574746F6E9A
:1032DC005F5265736574203A204572726F720000FC
:1032EC000A0D53656E736F7231203A204572726FFE
:1032FC00720000002564203D20256425643A256475
:10330C0025643A25642564000A0D4D6F62696C20B2
:10331C0041204C61703A00000A0D4D6F62696C20BF
:10332C0041203D2046494E49534800000A0D536543
:10333C006E736F7232203A204572726F7200000009
:10334C000A0D4D6F62696C2042204C61703A00008E
:10335C000A0D4D6F62696C2042203D2046494E4952
:10336C00534800000A0D53656E736F7233203A2078
:10337C004572726F720000000A0D4D6F62696C200D
:10338C0043204C61703A00000A0D4D6F62696C204D
:10339C0043203D2046494E495348000057414B5469
:1033AC0055202020256425643A256425643A25643B
:1033BC00256400004D4125643D256425643A25644F
:1033CC0025643A2564256420202020004D413D468B
:1033DC00494E495348202020000000004D422564EE
:1033EC003D256425643A256425643A2564256420CA
:1033FC00200000004D423D46494E495348202020B4
:10340C00000000004D4325643D256425643A256485
:10341C0025643A2564256420200000004D433D4678
:10342C00494E495348202000232D302B2000686C36
:10343C004C006566674546470030313233343536CB
:10344C003738394142434445460030313233343504
:0C345C0036373839616263646566000031
:043468003101000826
:04346C000D01000846
:10347000010000001000000090010000FF000000AB
:1034800090010000FF00000090010000FF0000001C
:1034900090010000FF00000090010000FF0000000C
:1034A0000500000000A24A043C00002000000000CB
:1034B000000000000000000000000000000000000C
:1034C00000000000000000000000000000000000FC
:1034D00000000000000000000000000000000000EC
:1034E00000000000000000000000000000000000DC
:1034F00000000000000000000000000000000000CC
:0C350000000000000000000000000000BF
:04000005080029A125
:00000001FF
